{
  "contractName": "Password",
  "abi": [
    {
      "inputs": [],
      "payable": false,
      "stateMutability": "nonpayable",
      "type": "constructor"
    },
    {
      "anonymous": false,
      "inputs": [
        {
          "indexed": false,
          "internalType": "bool",
          "name": "status",
          "type": "bool"
        }
      ],
      "name": "created",
      "type": "event"
    },
    {
      "constant": true,
      "inputs": [
        {
          "internalType": "uint256",
          "name": "",
          "type": "uint256"
        },
        {
          "internalType": "uint256",
          "name": "",
          "type": "uint256"
        }
      ],
      "name": "empty",
      "outputs": [
        {
          "internalType": "string",
          "name": "",
          "type": "string"
        }
      ],
      "payable": false,
      "stateMutability": "view",
      "type": "function"
    },
    {
      "constant": true,
      "inputs": [],
      "name": "name",
      "outputs": [
        {
          "internalType": "string",
          "name": "",
          "type": "string"
        }
      ],
      "payable": false,
      "stateMutability": "view",
      "type": "function"
    },
    {
      "constant": true,
      "inputs": [],
      "name": "symbol",
      "outputs": [
        {
          "internalType": "string",
          "name": "",
          "type": "string"
        }
      ],
      "payable": false,
      "stateMutability": "view",
      "type": "function"
    },
    {
      "constant": false,
      "inputs": [
        {
          "internalType": "string",
          "name": "_user",
          "type": "string"
        },
        {
          "internalType": "string",
          "name": "_password",
          "type": "string"
        },
        {
          "internalType": "string",
          "name": "_service",
          "type": "string"
        },
        {
          "internalType": "string",
          "name": "_masterKey",
          "type": "string"
        }
      ],
      "name": "addPassword",
      "outputs": [
        {
          "internalType": "bool",
          "name": "",
          "type": "bool"
        }
      ],
      "payable": false,
      "stateMutability": "nonpayable",
      "type": "function"
    },
    {
      "constant": true,
      "inputs": [
        {
          "internalType": "string",
          "name": "_masterKey",
          "type": "string"
        }
      ],
      "name": "getPasswords",
      "outputs": [
        {
          "internalType": "string[][]",
          "name": "",
          "type": "string[][]"
        }
      ],
      "payable": false,
      "stateMutability": "view",
      "type": "function"
    },
    {
      "constant": true,
      "inputs": [
        {
          "internalType": "string",
          "name": "_masterKey",
          "type": "string"
        }
      ],
      "name": "approve",
      "outputs": [
        {
          "internalType": "bool",
          "name": "",
          "type": "bool"
        }
      ],
      "payable": false,
      "stateMutability": "view",
      "type": "function"
    },
    {
      "constant": true,
      "inputs": [
        {
          "internalType": "string",
          "name": "_masterKey",
          "type": "string"
        }
      ],
      "name": "hasPasswords",
      "outputs": [
        {
          "internalType": "bool",
          "name": "",
          "type": "bool"
        }
      ],
      "payable": false,
      "stateMutability": "view",
      "type": "function"
    }
  ],
  "bytecode": "0x60806040526040518060400160405280600881526020017f50617373776f7264000000000000000000000000000000000000000000000000815250600090805190602001906200005192919062000104565b506040518060400160405280600381526020017f5053570000000000000000000000000000000000000000000000000000000000815250600190805190602001906200009f92919062000104565b506001604051908082528060200260200182016040528015620000d757816020015b6060815260200190600190039081620000c15790505b5060059080519060200190620000ef9291906200018b565b50348015620000fd57600080fd5b50620003d9565b828054600181600116156101000203166002900490600052602060002090601f016020900481019282601f106200014757805160ff191683800117855562000178565b8280016001018555821562000178579182015b82811115620001775782518255916020019190600101906200015a565b5b509050620001879190620001f2565b5090565b828054828255906000526020600020908101928215620001df579160200282015b82811115620001de578251829080519060200190620001cd9291906200021a565b5091602001919060010190620001ac565b5b509050620001ee919062000281565b5090565b6200021791905b8082111562000213576000816000905550600101620001f9565b5090565b90565b8280548282559060005260206000209081019282156200026e579160200282015b828111156200026d5782518290805190602001906200025c929190620002b2565b50916020019190600101906200023b565b5b5090506200027d919062000339565b5090565b620002af91905b80821115620002ab5760008181620002a191906200036a565b5060010162000288565b5090565b90565b828054600181600116156101000203166002900490600052602060002090601f016020900481019282601f10620002f557805160ff191683800117855562000326565b8280016001018555821562000326579182015b828111156200032557825182559160200191906001019062000308565b5b509050620003359190620001f2565b5090565b6200036791905b808211156200036357600081816200035991906200038d565b5060010162000340565b5090565b90565b50805460008255906000526020600020908101906200038a919062000339565b50565b50805460018160011615610100020316600290046000825580601f10620003b55750620003d6565b601f016020900490600052602060002090810190620003d59190620001f2565b5b50565b61146c80620003e96000396000f3fe608060405234801561001057600080fd5b506004361061007d5760003560e01c80636a70ddce1161005b5780636a70ddce1461010057806395d89b411461013057806398f9c7c51461014e578063b67b71631461017e5761007d565b806306fdde03146100825780631663cca8146100a05780631765147e146100d0575b600080fd5b61008a6101ae565b6040516100979190611264565b60405180910390f35b6100ba60048036036100b59190810190610e67565b61024c565b6040516100c79190611249565b60405180910390f35b6100ea60048036036100e59190810190610ea8565b6102f3565b6040516100f79190611249565b60405180910390f35b61011a60048036036101159190810190610f6b565b610662565b6040516101279190611264565b60405180910390f35b610138610731565b6040516101459190611264565b60405180910390f35b61016860048036036101639190810190610e67565b6107cf565b6040516101759190611227565b60405180910390f35b61019860048036036101939190810190610e67565b610b01565b6040516101a59190611249565b60405180910390f35b60008054600181600116156101000203166002900480601f0160208091040260200160405190810160405280929190818152602001828054600181600116156101000203166002900480156102445780601f1061021957610100808354040283529160200191610244565b820191906000526020600020905b81548152906001019060200180831161022757829003601f168201915b505050505081565b60008160405160200161025f91906111f9565b60405160208183030381529060405280519060200120600360003373ffffffffffffffffffffffffffffffffffffffff1673ffffffffffffffffffffffffffffffffffffffff1681526020019081526020016000206040516020016102c49190611210565b6040516020818303038152906040528051906020012014156102e957600190506102ee565b600090505b919050565b6000600460003373ffffffffffffffffffffffffffffffffffffffff1673ffffffffffffffffffffffffffffffffffffffff16815260200190815260200160002060009054906101000a900460ff166104c0576001600460003373ffffffffffffffffffffffffffffffffffffffff1673ffffffffffffffffffffffffffffffffffffffff16815260200190815260200160002060006101000a81548160ff02191690831515021790555081600360003373ffffffffffffffffffffffffffffffffffffffff1673ffffffffffffffffffffffffffffffffffffffff16815260200190815260200160002090805190602001906103f1929190610c05565b50600260003373ffffffffffffffffffffffffffffffffffffffff1673ffffffffffffffffffffffffffffffffffffffff168152602001908152602001600020604051806060016040528087815260200186815260200185815250908060018154018082558091505090600182039060005260206000200160009091929091909150906003610481929190610c85565b50507fd739d5d30bfa987c2bc263c85e4fdbac402c66723d5b659d15207804d3ed024060016040516104b39190611249565b60405180910390a161065a565b816040516020016104d191906111f9565b60405160208183030381529060405280519060200120600360003373ffffffffffffffffffffffffffffffffffffffff1673ffffffffffffffffffffffffffffffffffffffff1681526020019081526020016000206040516020016105369190611210565b60405160208183030381529060405280519060200120141561062057600260003373ffffffffffffffffffffffffffffffffffffffff1673ffffffffffffffffffffffffffffffffffffffff1681526020019081526020016000206040518060600160405280878152602001868152602001858152509080600181540180825580915050906001820390600052602060002001600090919290919091509060036105e1929190610c85565b50507fd739d5d30bfa987c2bc263c85e4fdbac402c66723d5b659d15207804d3ed024060016040516106139190611249565b60405180910390a1610659565b7fd739d5d30bfa987c2bc263c85e4fdbac402c66723d5b659d15207804d3ed024060006040516106509190611249565b60405180910390a15b5b949350505050565b6005828154811061066f57fe5b90600052602060002001818154811061068457fe5b90600052602060002001600091509150508054600181600116156101000203166002900480601f0160208091040260200160405190810160405280929190818152602001828054600181600116156101000203166002900480156107295780601f106106fe57610100808354040283529160200191610729565b820191906000526020600020905b81548152906001019060200180831161070c57829003601f168201915b505050505081565b60018054600181600116156101000203166002900480601f0160208091040260200160405190810160405280929190818152602001828054600181600116156101000203166002900480156107c75780601f1061079c576101008083540402835291602001916107c7565b820191906000526020600020905b8154815290600101906020018083116107aa57829003601f168201915b505050505081565b6060816040516020016107e291906111f9565b60405160208183030381529060405280519060200120600360003373ffffffffffffffffffffffffffffffffffffffff1673ffffffffffffffffffffffffffffffffffffffff1681526020019081526020016000206040516020016108479190611210565b6040516020818303038152906040528051906020012014156109d057600260003373ffffffffffffffffffffffffffffffffffffffff1673ffffffffffffffffffffffffffffffffffffffff168152602001908152602001600020805480602002602001604051908101604052809291908181526020016000905b828210156109c557838290600052602060002001805480602002602001604051908101604052809291908181526020016000905b828210156109b2578382906000526020600020018054600181600116156101000203166002900480601f01602080910402602001604051908101604052809291908181526020018280546001816001161561010002031660029004801561099e5780601f106109735761010080835404028352916020019161099e565b820191906000526020600020905b81548152906001019060200180831161098157829003601f168201915b5050505050815260200190600101906108f6565b50505050815260200190600101906108c2565b505050509050610afc565b6005805480602002602001604051908101604052809291908181526020016000905b82821015610af557838290600052602060002001805480602002602001604051908101604052809291908181526020016000905b82821015610ae2578382906000526020600020018054600181600116156101000203166002900480601f016020809104026020016040519081016040528092919081815260200182805460018160011615610100020316600290048015610ace5780601f10610aa357610100808354040283529160200191610ace565b820191906000526020600020905b815481529060010190602001808311610ab157829003601f168201915b505050505081526020019060010190610a26565b50505050815260200190600101906109f2565b5050505090505b919050565b600080600360003373ffffffffffffffffffffffffffffffffffffffff1673ffffffffffffffffffffffffffffffffffffffff1681526020019081526020016000208054600181600116156101000203166002900490501480610bed575081604051602001610b7091906111f9565b60405160208183030381529060405280519060200120600360003373ffffffffffffffffffffffffffffffffffffffff1673ffffffffffffffffffffffffffffffffffffffff168152602001908152602001600020604051602001610bd59190611210565b60405160208183030381529060405280519060200120145b15610bfb5760019050610c00565b600090505b919050565b828054600181600116156101000203166002900490600052602060002090601f016020900481019282601f10610c4657805160ff1916838001178555610c74565b82800160010185558215610c74579182015b82811115610c73578251825591602001919060010190610c58565b5b509050610c819190610ce5565b5090565b828054828255906000526020600020908101928215610cd4579160200282015b82811115610cd3578251829080519060200190610cc3929190610d0a565b5091602001919060010190610ca5565b5b509050610ce19190610d8a565b5090565b610d0791905b80821115610d03576000816000905550600101610ceb565b5090565b90565b828054600181600116156101000203166002900490600052602060002090601f016020900481019282601f10610d4b57805160ff1916838001178555610d79565b82800160010185558215610d79579182015b82811115610d78578251825591602001919060010190610d5d565b5b509050610d869190610ce5565b5090565b610db391905b80821115610daf5760008181610da69190610db6565b50600101610d90565b5090565b90565b50805460018160011615610100020316600290046000825580601f10610ddc5750610dfb565b601f016020900490600052602060002090810190610dfa9190610ce5565b5b50565b600082601f830112610e0f57600080fd5b8135610e22610e1d826112b3565b611286565b91508082526020830160208301858383011115610e3e57600080fd5b610e498382846113bf565b50505092915050565b600081359050610e6181611412565b92915050565b600060208284031215610e7957600080fd5b600082013567ffffffffffffffff811115610e9357600080fd5b610e9f84828501610dfe565b91505092915050565b60008060008060808587031215610ebe57600080fd5b600085013567ffffffffffffffff811115610ed857600080fd5b610ee487828801610dfe565b945050602085013567ffffffffffffffff811115610f0157600080fd5b610f0d87828801610dfe565b935050604085013567ffffffffffffffff811115610f2a57600080fd5b610f3687828801610dfe565b925050606085013567ffffffffffffffff811115610f5357600080fd5b610f5f87828801610dfe565b91505092959194509250565b60008060408385031215610f7e57600080fd5b6000610f8c85828601610e52565b9250506020610f9d85828601610e52565b9150509250929050565b6000610fb38383611044565b905092915050565b6000610fc783836110f9565b905092915050565b6000610fda82611314565b610fe4818561135a565b935083602082028501610ff6856112df565b8060005b8581101561103257848403895281516110138582610fa7565b945061101e83611340565b925060208a01995050600181019050610ffa565b50829750879550505050505092915050565b600061104f8261131f565b611059818561136b565b93508360208202850161106b856112ef565b8060005b858110156110a757848403895281516110888582610fbb565b94506110938361134d565b925060208a0199505060018101905061106f565b50829750879550505050505092915050565b6110c2816113a9565b82525050565b60006110d382611335565b6110dd818561139e565b93506110ed8185602086016113ce565b80840191505092915050565b60006111048261132a565b61110e818561137c565b935061111e8185602086016113ce565b61112781611401565b840191505092915050565b600061113d8261132a565b611147818561138d565b93506111578185602086016113ce565b61116081611401565b840191505092915050565b60008154600181166000811461118857600181146111ad576111f1565b607f6002830416611199818761139e565b955060ff19831686528086019350506111f1565b600282046111bb818761139e565b95506111c6856112ff565b60005b828110156111e8578154818901526001820191506020810190506111c9565b82880195505050505b505092915050565b600061120582846110c8565b915081905092915050565b600061121c828461116b565b915081905092915050565b600060208201905081810360008301526112418184610fcf565b905092915050565b600060208201905061125e60008301846110b9565b92915050565b6000602082019050818103600083015261127e8184611132565b905092915050565b6000604051905081810181811067ffffffffffffffff821117156112a957600080fd5b8060405250919050565b600067ffffffffffffffff8211156112ca57600080fd5b601f19601f8301169050602081019050919050565b6000819050602082019050919050565b6000819050602082019050919050565b60008190508160005260206000209050919050565b600081519050919050565b600081519050919050565b600081519050919050565b600081519050919050565b6000602082019050919050565b6000602082019050919050565b600082825260208201905092915050565b600082825260208201905092915050565b600082825260208201905092915050565b600082825260208201905092915050565b600081905092915050565b60008115159050919050565b6000819050919050565b82818337600083830152505050565b60005b838110156113ec5780820151818401526020810190506113d1565b838111156113fb576000848401525b50505050565b6000601f19601f8301169050919050565b61141b816113b5565b811461142657600080fd5b5056fea365627a7a72315820b153f12ec1c486675bbf89fce4b2cf793a3cd92229f1facccbb0727c27bbb0706c6578706572696d656e74616cf564736f6c63430005100040",
  "source": "pragma solidity ^0.5.0;\npragma experimental ABIEncoderV2;\n\ncontract Password {\n\n  string  public name = \"Password\";\n  string  public symbol = \"PSW\";\n  mapping (address => string[][]) _passwordsOwnedBy;\n  mapping (address => string) _masterKeyOfUser;\n  mapping (address => bool) _userExists;\n\n  string[][] public empty = new string[][](1);\n\n  constructor() public {\n\n  }\n\n  event created (\n    bool status\n  );\n\n  function addPassword(string memory _user, string memory _password, string memory _service, string memory _masterKey) public returns(bool){\n\n    if(!_userExists[msg.sender]) {\n      _userExists[msg.sender] = true;\n      _masterKeyOfUser[msg.sender] = _masterKey;\n      _passwordsOwnedBy[msg.sender].push([_user, _password, _service]);\n      emit created(true);\n    }\n    else if (keccak256(abi.encodePacked(_masterKeyOfUser[msg.sender])) == keccak256(abi.encodePacked(_masterKey))){\n      _passwordsOwnedBy[msg.sender].push([_user, _password, _service]);\n      emit created(true);\n    }\n    else {\n      emit created(false);\n    }\n\n  }\n  function getPasswords(string memory _masterKey) public view returns(string[][] memory){\n    if(keccak256(abi.encodePacked(_masterKeyOfUser[msg.sender])) == keccak256(abi.encodePacked(_masterKey))){\n      return _passwordsOwnedBy[msg.sender];\n    }\n    else {\n      return empty;\n    }\n  }\n\n  function approve(string memory _masterKey) public view returns(bool){\n    if(bytes(_masterKeyOfUser[msg.sender]).length==0 || (keccak256(abi.encodePacked(_masterKeyOfUser[msg.sender])) == keccak256(abi.encodePacked(_masterKey))))\n    {\n      return true;\n    }\n    return false;\n  }\n\n  function hasPasswords(string memory _masterKey) public view returns(bool){\n    if((keccak256(abi.encodePacked(_masterKeyOfUser[msg.sender])) == keccak256(abi.encodePacked(_masterKey))))\n    {\n      return true;\n    }\n    return false;\n  }\n\n}\n",
  "sourcePath": "/home/theodlz/Desktop/dapp_ping_test/src/contracts/Password.sol",
  "compiler": {
    "name": "solc",
    "version": "0.5.16+commit.9c3226ce.Emscripten.clang"
  },
  "schemaVersion": "3.0.23",
  "updatedAt": "2021-05-30T16:16:31.579Z",
  "networkType": "ethereum",
  "devdoc": {
    "methods": {}
  },
  "userdoc": {
    "methods": {}
  }
}