{
  "contractName": "Passwordv1",
  "abi": [
    {
      "inputs": [],
      "payable": false,
      "stateMutability": "nonpayable",
      "type": "constructor"
    },
    {
      "anonymous": false,
      "inputs": [
        {
          "indexed": true,
          "internalType": "address",
          "name": "owner",
          "type": "address"
        },
        {
          "indexed": true,
          "internalType": "address",
          "name": "approved",
          "type": "address"
        },
        {
          "indexed": true,
          "internalType": "uint256",
          "name": "tokenId",
          "type": "uint256"
        }
      ],
      "name": "Approval",
      "type": "event"
    },
    {
      "anonymous": false,
      "inputs": [
        {
          "indexed": true,
          "internalType": "address",
          "name": "owner",
          "type": "address"
        },
        {
          "indexed": true,
          "internalType": "address",
          "name": "operator",
          "type": "address"
        },
        {
          "indexed": false,
          "internalType": "bool",
          "name": "approved",
          "type": "bool"
        }
      ],
      "name": "ApprovalForAll",
      "type": "event"
    },
    {
      "anonymous": false,
      "inputs": [
        {
          "indexed": true,
          "internalType": "address",
          "name": "from",
          "type": "address"
        },
        {
          "indexed": true,
          "internalType": "address",
          "name": "to",
          "type": "address"
        },
        {
          "indexed": true,
          "internalType": "uint256",
          "name": "tokenId",
          "type": "uint256"
        }
      ],
      "name": "Transfer",
      "type": "event"
    },
    {
      "anonymous": false,
      "inputs": [
        {
          "indexed": false,
          "internalType": "string[]",
          "name": "passwordsOfUser",
          "type": "string[]"
        }
      ],
      "name": "getPasswordsOfUser",
      "type": "event"
    },
    {
      "anonymous": false,
      "inputs": [
        {
          "indexed": true,
          "internalType": "address",
          "name": "_by",
          "type": "address"
        },
        {
          "indexed": false,
          "internalType": "uint256",
          "name": "_id",
          "type": "uint256"
        },
        {
          "indexed": false,
          "internalType": "string",
          "name": "_value",
          "type": "string"
        },
        {
          "indexed": false,
          "internalType": "uint256",
          "name": "_nbPasswords",
          "type": "uint256"
        }
      ],
      "name": "minted",
      "type": "event"
    },
    {
      "constant": false,
      "inputs": [
        {
          "internalType": "address",
          "name": "to",
          "type": "address"
        },
        {
          "internalType": "uint256",
          "name": "tokenId",
          "type": "uint256"
        }
      ],
      "name": "approve",
      "outputs": [],
      "payable": false,
      "stateMutability": "nonpayable",
      "type": "function"
    },
    {
      "constant": true,
      "inputs": [
        {
          "internalType": "address",
          "name": "owner",
          "type": "address"
        }
      ],
      "name": "balanceOf",
      "outputs": [
        {
          "internalType": "uint256",
          "name": "",
          "type": "uint256"
        }
      ],
      "payable": false,
      "stateMutability": "view",
      "type": "function"
    },
    {
      "constant": true,
      "inputs": [],
      "name": "baseURI",
      "outputs": [
        {
          "internalType": "string",
          "name": "",
          "type": "string"
        }
      ],
      "payable": false,
      "stateMutability": "view",
      "type": "function"
    },
    {
      "constant": true,
      "inputs": [
        {
          "internalType": "uint256",
          "name": "tokenId",
          "type": "uint256"
        }
      ],
      "name": "getApproved",
      "outputs": [
        {
          "internalType": "address",
          "name": "",
          "type": "address"
        }
      ],
      "payable": false,
      "stateMutability": "view",
      "type": "function"
    },
    {
      "constant": true,
      "inputs": [
        {
          "internalType": "address",
          "name": "owner",
          "type": "address"
        },
        {
          "internalType": "address",
          "name": "operator",
          "type": "address"
        }
      ],
      "name": "isApprovedForAll",
      "outputs": [
        {
          "internalType": "bool",
          "name": "",
          "type": "bool"
        }
      ],
      "payable": false,
      "stateMutability": "view",
      "type": "function"
    },
    {
      "constant": true,
      "inputs": [],
      "name": "name",
      "outputs": [
        {
          "internalType": "string",
          "name": "",
          "type": "string"
        }
      ],
      "payable": false,
      "stateMutability": "view",
      "type": "function"
    },
    {
      "constant": true,
      "inputs": [
        {
          "internalType": "uint256",
          "name": "tokenId",
          "type": "uint256"
        }
      ],
      "name": "ownerOf",
      "outputs": [
        {
          "internalType": "address",
          "name": "",
          "type": "address"
        }
      ],
      "payable": false,
      "stateMutability": "view",
      "type": "function"
    },
    {
      "constant": true,
      "inputs": [
        {
          "internalType": "uint256",
          "name": "",
          "type": "uint256"
        }
      ],
      "name": "passwords",
      "outputs": [
        {
          "internalType": "string",
          "name": "",
          "type": "string"
        }
      ],
      "payable": false,
      "stateMutability": "view",
      "type": "function"
    },
    {
      "constant": false,
      "inputs": [
        {
          "internalType": "address",
          "name": "from",
          "type": "address"
        },
        {
          "internalType": "address",
          "name": "to",
          "type": "address"
        },
        {
          "internalType": "uint256",
          "name": "tokenId",
          "type": "uint256"
        }
      ],
      "name": "safeTransferFrom",
      "outputs": [],
      "payable": false,
      "stateMutability": "nonpayable",
      "type": "function"
    },
    {
      "constant": false,
      "inputs": [
        {
          "internalType": "address",
          "name": "from",
          "type": "address"
        },
        {
          "internalType": "address",
          "name": "to",
          "type": "address"
        },
        {
          "internalType": "uint256",
          "name": "tokenId",
          "type": "uint256"
        },
        {
          "internalType": "bytes",
          "name": "_data",
          "type": "bytes"
        }
      ],
      "name": "safeTransferFrom",
      "outputs": [],
      "payable": false,
      "stateMutability": "nonpayable",
      "type": "function"
    },
    {
      "constant": false,
      "inputs": [
        {
          "internalType": "address",
          "name": "to",
          "type": "address"
        },
        {
          "internalType": "bool",
          "name": "approved",
          "type": "bool"
        }
      ],
      "name": "setApprovalForAll",
      "outputs": [],
      "payable": false,
      "stateMutability": "nonpayable",
      "type": "function"
    },
    {
      "constant": true,
      "inputs": [
        {
          "internalType": "bytes4",
          "name": "interfaceId",
          "type": "bytes4"
        }
      ],
      "name": "supportsInterface",
      "outputs": [
        {
          "internalType": "bool",
          "name": "",
          "type": "bool"
        }
      ],
      "payable": false,
      "stateMutability": "view",
      "type": "function"
    },
    {
      "constant": true,
      "inputs": [],
      "name": "symbol",
      "outputs": [
        {
          "internalType": "string",
          "name": "",
          "type": "string"
        }
      ],
      "payable": false,
      "stateMutability": "view",
      "type": "function"
    },
    {
      "constant": true,
      "inputs": [
        {
          "internalType": "uint256",
          "name": "index",
          "type": "uint256"
        }
      ],
      "name": "tokenByIndex",
      "outputs": [
        {
          "internalType": "uint256",
          "name": "",
          "type": "uint256"
        }
      ],
      "payable": false,
      "stateMutability": "view",
      "type": "function"
    },
    {
      "constant": true,
      "inputs": [
        {
          "internalType": "address",
          "name": "owner",
          "type": "address"
        },
        {
          "internalType": "uint256",
          "name": "index",
          "type": "uint256"
        }
      ],
      "name": "tokenOfOwnerByIndex",
      "outputs": [
        {
          "internalType": "uint256",
          "name": "",
          "type": "uint256"
        }
      ],
      "payable": false,
      "stateMutability": "view",
      "type": "function"
    },
    {
      "constant": true,
      "inputs": [
        {
          "internalType": "uint256",
          "name": "tokenId",
          "type": "uint256"
        }
      ],
      "name": "tokenURI",
      "outputs": [
        {
          "internalType": "string",
          "name": "",
          "type": "string"
        }
      ],
      "payable": false,
      "stateMutability": "view",
      "type": "function"
    },
    {
      "constant": true,
      "inputs": [],
      "name": "totalSupply",
      "outputs": [
        {
          "internalType": "uint256",
          "name": "",
          "type": "uint256"
        }
      ],
      "payable": false,
      "stateMutability": "view",
      "type": "function"
    },
    {
      "constant": false,
      "inputs": [
        {
          "internalType": "address",
          "name": "from",
          "type": "address"
        },
        {
          "internalType": "address",
          "name": "to",
          "type": "address"
        },
        {
          "internalType": "uint256",
          "name": "tokenId",
          "type": "uint256"
        }
      ],
      "name": "transferFrom",
      "outputs": [],
      "payable": false,
      "stateMutability": "nonpayable",
      "type": "function"
    },
    {
      "constant": false,
      "inputs": [
        {
          "internalType": "string",
          "name": "_password",
          "type": "string"
        }
      ],
      "name": "mint",
      "outputs": [],
      "payable": false,
      "stateMutability": "nonpayable",
      "type": "function"
    },
    {
      "constant": false,
      "inputs": [
        {
          "internalType": "address",
          "name": "_of",
          "type": "address"
        }
      ],
      "name": "getPasswords",
      "outputs": [],
      "payable": false,
      "stateMutability": "nonpayable",
      "type": "function"
    }
  ],
  "bytecode": "0x60806040523480156200001157600080fd5b506040518060400160405280600981526020017f50617373776f72647300000000000000000000000000000000000000000000008152506040518060400160405280600381526020017f50535700000000000000000000000000000000000000000000000000000000008152508181620000986301ffc9a760e01b6200011c60201b60201c565b620000b06380ac58cd60e01b6200011c60201b60201c565b620000c863780e9d6360e01b6200011c60201b60201c565b8160099080519060200190620000e0929190620001f4565b5080600a9080519060200190620000f9929190620001f4565b5062000112635b5e139f60e01b6200011c60201b60201c565b5050505062000318565b63ffffffff60e01b817bffffffffffffffffffffffffffffffffffffffffffffffffffffffff1916141562000188576040517f08c379a00000000000000000000000000000000000000000000000000000000081526004016200017f90620002e5565b60405180910390fd5b6001600080837bffffffffffffffffffffffffffffffffffffffffffffffffffffffff19167bffffffffffffffffffffffffffffffffffffffffffffffffffffffff1916815260200190815260200160002060006101000a81548160ff02191690831515021790555050565b828054600181600116156101000203166002900490600052602060002090601f016020900481019282601f106200023757805160ff191683800117855562000268565b8280016001018555821562000268579182015b82811115620002675782518255916020019190600101906200024a565b5b5090506200027791906200027b565b5090565b620002a091905b808211156200029c57600081600090555060010162000282565b5090565b90565b6000620002b2601c8362000307565b91507f4552433136353a20696e76616c696420696e74657266616365206964000000006000830152602082019050919050565b600060208201905081810360008301526200030081620002a3565b9050919050565b600082825260208201905092915050565b61329d80620003286000396000f3fe608060405234801561001057600080fd5b506004361061012c5760003560e01c80636c0360eb116100ad578063b88d4fde11610071578063b88d4fde14610369578063c87b56dd14610385578063d85d3d27146103b5578063e4e539a1146103d1578063e985e9c5146103ed5761012c565b80636c0360eb146102b157806370a08231146102cf57806395d89b41146102ff578063a04e318c1461031d578063a22cb4651461034d5761012c565b806323b872dd116100f457806323b872dd146101e95780632f745c591461020557806342842e0e146102355780634f6ccce7146102515780636352211e146102815761012c565b806301ffc9a71461013157806306fdde0314610161578063081812fc1461017f578063095ea7b3146101af57806318160ddd146101cb575b600080fd5b61014b60048036036101469190810190612329565b61041d565b6040516101589190612d30565b60405180910390f35b610169610484565b6040516101769190612d6d565b60405180910390f35b610199600480360361019491908101906123bc565b610526565b6040516101a69190612ca7565b60405180910390f35b6101c960048036036101c491908101906122ed565b6105ab565b005b6101d3610766565b6040516101e09190612f8f565b60405180910390f35b61020360048036036101fe91908101906121e7565b610773565b005b61021f600480360361021a91908101906122ed565b6107d3565b60405161022c9190612f8f565b60405180910390f35b61024f600480360361024a91908101906121e7565b61087c565b005b61026b600480360361026691908101906123bc565b61089c565b6040516102789190612f8f565b60405180910390f35b61029b600480360361029691908101906123bc565b610906565b6040516102a89190612ca7565b60405180910390f35b6102b96109b8565b6040516102c69190612d6d565b60405180910390f35b6102e960048036036102e49190810190612182565b610a5a565b6040516102f69190612f8f565b60405180910390f35b610307610b19565b6040516103149190612d6d565b60405180910390f35b610337600480360361033291908101906123bc565b610bbb565b6040516103449190612d4b565b60405180910390f35b610367600480360361036291908101906122b1565b610c74565b005b610383600480360361037e9190810190612236565b610df5565b005b61039f600480360361039a91908101906123bc565b610e57565b6040516103ac9190612d6d565b60405180910390f35b6103cf60048036036103ca919081019061237b565b610f9f565b005b6103eb60048036036103e69190810190612182565b611098565b005b610407600480360361040291908101906121ab565b611292565b6040516104149190612d30565b60405180910390f35b6000806000837bffffffffffffffffffffffffffffffffffffffffffffffffffffffff19167bffffffffffffffffffffffffffffffffffffffffffffffffffffffff1916815260200190815260200160002060009054906101000a900460ff169050919050565b606060098054600181600116156101000203166002900480601f01602080910402602001604051908101604052809291908181526020018280546001816001161561010002031660029004801561051c5780601f106104f15761010080835404028352916020019161051c565b820191906000526020600020905b8154815290600101906020018083116104ff57829003601f168201915b5050505050905090565b600061053182611326565b610570576040517f08c379a000000000000000000000000000000000000000000000000000000000815260040161056790612ecf565b60405180910390fd5b6002600083815260200190815260200160002060009054906101000a900473ffffffffffffffffffffffffffffffffffffffff169050919050565b60006105b682610906565b90508073ffffffffffffffffffffffffffffffffffffffff168373ffffffffffffffffffffffffffffffffffffffff161415610627576040517f08c379a000000000000000000000000000000000000000000000000000000000815260040161061e90612f2f565b60405180910390fd5b8073ffffffffffffffffffffffffffffffffffffffff16610646611398565b73ffffffffffffffffffffffffffffffffffffffff16148061067557506106748161066f611398565b611292565b5b6106b4576040517f08c379a00000000000000000000000000000000000000000000000000000000081526004016106ab90612e4f565b60405180910390fd5b826002600084815260200190815260200160002060006101000a81548173ffffffffffffffffffffffffffffffffffffffff021916908373ffffffffffffffffffffffffffffffffffffffff160217905550818373ffffffffffffffffffffffffffffffffffffffff168273ffffffffffffffffffffffffffffffffffffffff167f8c5be1e5ebec7d5bd14f71427d1e84f3dd0314c0f7b2291e5b200ac8c7c3b92560405160405180910390a4505050565b6000600780549050905090565b61078461077e611398565b826113a0565b6107c3576040517f08c379a00000000000000000000000000000000000000000000000000000000081526004016107ba90612f4f565b60405180910390fd5b6107ce83838361147e565b505050565b60006107de83610a5a565b821061081f576040517f08c379a000000000000000000000000000000000000000000000000000000000815260040161081690612d8f565b60405180910390fd5b600560008473ffffffffffffffffffffffffffffffffffffffff1673ffffffffffffffffffffffffffffffffffffffff168152602001908152602001600020828154811061086957fe5b9060005260206000200154905092915050565b61089783838360405180602001604052806000815250610df5565b505050565b60006108a6610766565b82106108e7576040517f08c379a00000000000000000000000000000000000000000000000000000000081526004016108de90612f6f565b60405180910390fd5b600782815481106108f457fe5b90600052602060002001549050919050565b6000806001600084815260200190815260200160002060009054906101000a900473ffffffffffffffffffffffffffffffffffffffff169050600073ffffffffffffffffffffffffffffffffffffffff168173ffffffffffffffffffffffffffffffffffffffff1614156109af576040517f08c379a00000000000000000000000000000000000000000000000000000000081526004016109a690612e8f565b60405180910390fd5b80915050919050565b6060600b8054600181600116156101000203166002900480601f016020809104026020016040519081016040528092919081815260200182805460018160011615610100020316600290048015610a505780601f10610a2557610100808354040283529160200191610a50565b820191906000526020600020905b815481529060010190602001808311610a3357829003601f168201915b5050505050905090565b60008073ffffffffffffffffffffffffffffffffffffffff168273ffffffffffffffffffffffffffffffffffffffff161415610acb576040517f08c379a0000000000000000000000000000000000000000000000000000000008152600401610ac290612e6f565b60405180910390fd5b610b12600360008473ffffffffffffffffffffffffffffffffffffffff1673ffffffffffffffffffffffffffffffffffffffff1681526020019081526020016000206114a2565b9050919050565b6060600a8054600181600116156101000203166002900480601f016020809104026020016040519081016040528092919081815260200182805460018160011615610100020316600290048015610bb15780601f10610b8657610100808354040283529160200191610bb1565b820191906000526020600020905b815481529060010190602001808311610b9457829003601f168201915b5050505050905090565b600d8181548110610bc857fe5b906000526020600020016000915090508054600181600116156101000203166002900480601f016020809104026020016040519081016040528092919081815260200182805460018160011615610100020316600290048015610c6c5780601f10610c4157610100808354040283529160200191610c6c565b820191906000526020600020905b815481529060010190602001808311610c4f57829003601f168201915b505050505081565b610c7c611398565b73ffffffffffffffffffffffffffffffffffffffff168273ffffffffffffffffffffffffffffffffffffffff161415610cea576040517f08c379a0000000000000000000000000000000000000000000000000000000008152600401610ce190612e0f565b60405180910390fd5b8060046000610cf7611398565b73ffffffffffffffffffffffffffffffffffffffff1673ffffffffffffffffffffffffffffffffffffffff16815260200190815260200160002060008473ffffffffffffffffffffffffffffffffffffffff1673ffffffffffffffffffffffffffffffffffffffff16815260200190815260200160002060006101000a81548160ff0219169083151502179055508173ffffffffffffffffffffffffffffffffffffffff16610da4611398565b73ffffffffffffffffffffffffffffffffffffffff167f17307eab39ab6107e8899845ad3d59bd9653f200f220920489ca2b5937696c3183604051610de99190612d30565b60405180910390a35050565b610e06610e00611398565b836113a0565b610e45576040517f08c379a0000000000000000000000000000000000000000000000000000000008152600401610e3c90612f4f565b60405180910390fd5b610e51848484846114b0565b50505050565b6060610e6282611326565b610ea1576040517f08c379a0000000000000000000000000000000000000000000000000000000008152600401610e9890612f0f565b60405180910390fd5b6060600c60008481526020019081526020016000208054600181600116156101000203166002900480601f016020809104026020016040519081016040528092919081815260200182805460018160011615610100020316600290048015610f4a5780601f10610f1f57610100808354040283529160200191610f4a565b820191906000526020600020905b815481529060010190602001808311610f2d57829003601f168201915b50505050509050600081511415610f735760405180602001604052806000815250915050610f9a565b600b81604051602001610f87929190612c83565b6040516020818303038152906040529150505b919050565b6000600d829080600181540180825580915050906001820390600052602060002001600090919290919091509080519060200190610fde929190611fa0565b509050610feb338261150c565b33600e600083815260200190815260200160002060006101000a81548173ffffffffffffffffffffffffffffffffffffffff021916908373ffffffffffffffffffffffffffffffffffffffff1602179055503373ffffffffffffffffffffffffffffffffffffffff167ff677585ff6bcd2679d9e952f2a6e537bf386e110ce76811f6b317c90125d0ed98284600d8054905060405161108c93929190612faa565b60405180910390a25050565b6000600d8054905014156110ab57600080fd5b6060600d805490506040519080825280602002602001820160405280156110e657816020015b60608152602001906001900390816110d15790505b5090506000600190505b600d805490508163ffffffff1611611256578273ffffffffffffffffffffffffffffffffffffffff16600e60008363ffffffff16815260200190815260200160002060009054906101000a900473ffffffffffffffffffffffffffffffffffffffff1673ffffffffffffffffffffffffffffffffffffffff16141561124957600d6001820363ffffffff168154811061118557fe5b906000526020600020018054600181600116156101000203166002900480601f0160208091040260200160405190810160405280929190818152602001828054600181600116156101000203166002900480156112235780601f106111f857610100808354040283529160200191611223565b820191906000526020600020905b81548152906001019060200180831161120657829003601f168201915b5050505050826001830363ffffffff168151811061123d57fe5b60200260200101819052505b80806001019150506110f0565b507fdef7099f210fcd9cc6844f9d825a8670827e8e7ad3d63690633b6275de3f9ab4816040516112869190612d0e565b60405180910390a15050565b6000600460008473ffffffffffffffffffffffffffffffffffffffff1673ffffffffffffffffffffffffffffffffffffffff16815260200190815260200160002060008373ffffffffffffffffffffffffffffffffffffffff1673ffffffffffffffffffffffffffffffffffffffff16815260200190815260200160002060009054906101000a900460ff16905092915050565b6000806001600084815260200190815260200160002060009054906101000a900473ffffffffffffffffffffffffffffffffffffffff169050600073ffffffffffffffffffffffffffffffffffffffff168173ffffffffffffffffffffffffffffffffffffffff161415915050919050565b600033905090565b60006113ab82611326565b6113ea576040517f08c379a00000000000000000000000000000000000000000000000000000000081526004016113e190612e2f565b60405180910390fd5b60006113f583610906565b90508073ffffffffffffffffffffffffffffffffffffffff168473ffffffffffffffffffffffffffffffffffffffff16148061146457508373ffffffffffffffffffffffffffffffffffffffff1661144c84610526565b73ffffffffffffffffffffffffffffffffffffffff16145b8061147557506114748185611292565b5b91505092915050565b61148983838361152d565b611493838261175c565b61149d82826118fa565b505050565b600081600001549050919050565b6114bb84848461147e565b6114c7848484846119c1565b611506576040517f08c379a00000000000000000000000000000000000000000000000000000000081526004016114fd90612daf565b60405180910390fd5b50505050565b6115168282611bbb565b61152082826118fa565b61152981611d6d565b5050565b8273ffffffffffffffffffffffffffffffffffffffff1661154d82610906565b73ffffffffffffffffffffffffffffffffffffffff16146115a3576040517f08c379a000000000000000000000000000000000000000000000000000000000815260040161159a90612eef565b60405180910390fd5b600073ffffffffffffffffffffffffffffffffffffffff168273ffffffffffffffffffffffffffffffffffffffff161415611613576040517f08c379a000000000000000000000000000000000000000000000000000000000815260040161160a90612def565b60405180910390fd5b61161c81611db9565b611663600360008573ffffffffffffffffffffffffffffffffffffffff1673ffffffffffffffffffffffffffffffffffffffff168152602001908152602001600020611e77565b6116aa600360008473ffffffffffffffffffffffffffffffffffffffff1673ffffffffffffffffffffffffffffffffffffffff168152602001908152602001600020611e9a565b816001600083815260200190815260200160002060006101000a81548173ffffffffffffffffffffffffffffffffffffffff021916908373ffffffffffffffffffffffffffffffffffffffff160217905550808273ffffffffffffffffffffffffffffffffffffffff168473ffffffffffffffffffffffffffffffffffffffff167fddf252ad1be2c89b69c2b068fc378daa952ba7f163c4a11628f55a4df523b3ef60405160405180910390a4505050565b60006117b46001600560008673ffffffffffffffffffffffffffffffffffffffff1673ffffffffffffffffffffffffffffffffffffffff16815260200190815260200160002080549050611eb090919063ffffffff16565b90506000600660008481526020019081526020016000205490508181146118a1576000600560008673ffffffffffffffffffffffffffffffffffffffff1673ffffffffffffffffffffffffffffffffffffffff168152602001908152602001600020838154811061182157fe5b9060005260206000200154905080600560008773ffffffffffffffffffffffffffffffffffffffff1673ffffffffffffffffffffffffffffffffffffffff168152602001908152602001600020838154811061187957fe5b9060005260206000200181905550816006600083815260200190815260200160002081905550505b600560008573ffffffffffffffffffffffffffffffffffffffff1673ffffffffffffffffffffffffffffffffffffffff1681526020019081526020016000208054809190600190036118f39190612020565b5050505050565b600560008373ffffffffffffffffffffffffffffffffffffffff1673ffffffffffffffffffffffffffffffffffffffff168152602001908152602001600020805490506006600083815260200190815260200160002081905550600560008373ffffffffffffffffffffffffffffffffffffffff1673ffffffffffffffffffffffffffffffffffffffff1681526020019081526020016000208190806001815401808255809150509060018203906000526020600020016000909192909190915055505050565b60006119e28473ffffffffffffffffffffffffffffffffffffffff16611efa565b6119ef5760019050611bb3565b600060608573ffffffffffffffffffffffffffffffffffffffff168673ffffffffffffffffffffffffffffffffffffffff1663150b7a02905060e01b611a33611398565b898888604051602401611a499493929190612cc2565b604051602081830303815290604052907bffffffffffffffffffffffffffffffffffffffffffffffffffffffff19166020820180517bffffffffffffffffffffffffffffffffffffffffffffffffffffffff8381831617835250505050604051611ab39190612c6c565b6000604051808303816000865af19150503d8060008114611af0576040519150601f19603f3d011682016040523d82523d6000602084013e611af5565b606091505b509150915081611b4d57600081511115611b125780518082602001fd5b6040517f08c379a0000000000000000000000000000000000000000000000000000000008152600401611b4490612daf565b60405180910390fd5b600081806020019051611b639190810190612352565b905063150b7a0260e01b7bffffffffffffffffffffffffffffffffffffffffffffffffffffffff1916817bffffffffffffffffffffffffffffffffffffffffffffffffffffffff19161493505050505b949350505050565b600073ffffffffffffffffffffffffffffffffffffffff168273ffffffffffffffffffffffffffffffffffffffff161415611c2b576040517f08c379a0000000000000000000000000000000000000000000000000000000008152600401611c2290612eaf565b60405180910390fd5b611c3481611326565b15611c74576040517f08c379a0000000000000000000000000000000000000000000000000000000008152600401611c6b90612dcf565b60405180910390fd5b816001600083815260200190815260200160002060006101000a81548173ffffffffffffffffffffffffffffffffffffffff021916908373ffffffffffffffffffffffffffffffffffffffff160217905550611d0d600360008473ffffffffffffffffffffffffffffffffffffffff1673ffffffffffffffffffffffffffffffffffffffff168152602001908152602001600020611e9a565b808273ffffffffffffffffffffffffffffffffffffffff16600073ffffffffffffffffffffffffffffffffffffffff167fddf252ad1be2c89b69c2b068fc378daa952ba7f163c4a11628f55a4df523b3ef60405160405180910390a45050565b6007805490506008600083815260200190815260200160002081905550600781908060018154018082558091505090600182039060005260206000200160009091929091909150555050565b600073ffffffffffffffffffffffffffffffffffffffff166002600083815260200190815260200160002060009054906101000a900473ffffffffffffffffffffffffffffffffffffffff1673ffffffffffffffffffffffffffffffffffffffff1614611e745760006002600083815260200190815260200160002060006101000a81548173ffffffffffffffffffffffffffffffffffffffff021916908373ffffffffffffffffffffffffffffffffffffffff1602179055505b50565b611e8f60018260000154611eb090919063ffffffff16565b816000018190555050565b6001816000016000828254019250508190555050565b6000611ef283836040518060400160405280601e81526020017f536166654d6174683a207375627472616374696f6e206f766572666c6f770000815250611f45565b905092915050565b60008060007fc5d2460186f7233c927e7db2dcc703c0e500b653ca82273b7bfad8045d85a47060001b9050833f9150808214158015611f3c57506000801b8214155b92505050919050565b6000838311158290611f8d576040517f08c379a0000000000000000000000000000000000000000000000000000000008152600401611f849190612d6d565b60405180910390fd5b5060008385039050809150509392505050565b828054600181600116156101000203166002900490600052602060002090601f016020900481019282601f10611fe157805160ff191683800117855561200f565b8280016001018555821561200f579182015b8281111561200e578251825591602001919060010190611ff3565b5b50905061201c919061204c565b5090565b81548183558181111561204757818360005260206000209182019101612046919061204c565b5b505050565b61206e91905b8082111561206a576000816000905550600101612052565b5090565b90565b600081359050612080816131fe565b92915050565b60008135905061209581613215565b92915050565b6000813590506120aa8161322c565b92915050565b6000815190506120bf8161322c565b92915050565b600082601f8301126120d657600080fd5b81356120e96120e482613015565b612fe8565b9150808252602083016020830185838301111561210557600080fd5b6121108382846131ab565b50505092915050565b600082601f83011261212a57600080fd5b813561213d61213882613041565b612fe8565b9150808252602083016020830185838301111561215957600080fd5b6121648382846131ab565b50505092915050565b60008135905061217c81613243565b92915050565b60006020828403121561219457600080fd5b60006121a284828501612071565b91505092915050565b600080604083850312156121be57600080fd5b60006121cc85828601612071565b92505060206121dd85828601612071565b9150509250929050565b6000806000606084860312156121fc57600080fd5b600061220a86828701612071565b935050602061221b86828701612071565b925050604061222c8682870161216d565b9150509250925092565b6000806000806080858703121561224c57600080fd5b600061225a87828801612071565b945050602061226b87828801612071565b935050604061227c8782880161216d565b925050606085013567ffffffffffffffff81111561229957600080fd5b6122a5878288016120c5565b91505092959194509250565b600080604083850312156122c457600080fd5b60006122d285828601612071565b92505060206122e385828601612086565b9150509250929050565b6000806040838503121561230057600080fd5b600061230e85828601612071565b925050602061231f8582860161216d565b9150509250929050565b60006020828403121561233b57600080fd5b60006123498482850161209b565b91505092915050565b60006020828403121561236457600080fd5b6000612372848285016120b0565b91505092915050565b60006020828403121561238d57600080fd5b600082013567ffffffffffffffff8111156123a757600080fd5b6123b384828501612119565b91505092915050565b6000602082840312156123ce57600080fd5b60006123dc8482850161216d565b91505092915050565b60006123f1838361256f565b905092915050565b61240281613137565b82525050565b61241181613125565b82525050565b600061242282613092565b61242c81856130cb565b93508360208202850161243e8561306d565b8060005b8581101561247a578484038952815161245b85826123e5565b9450612466836130be565b925060208a01995050600181019050612442565b50829750879550505050505092915050565b61249581613149565b82525050565b60006124a68261309d565b6124b081856130dc565b93506124c08185602086016131ba565b6124c9816131ed565b840191505092915050565b60006124df8261309d565b6124e981856130ed565b93506124f98185602086016131ba565b80840191505092915050565b6000612510826130b3565b61251a8185613109565b935061252a8185602086016131ba565b612533816131ed565b840191505092915050565b6000612549826130b3565b612553818561311a565b93506125638185602086016131ba565b80840191505092915050565b600061257a826130a8565b61258481856130f8565b93506125948185602086016131ba565b61259d816131ed565b840191505092915050565b60006125b3826130a8565b6125bd8185613109565b93506125cd8185602086016131ba565b6125d6816131ed565b840191505092915050565b6000815460018116600081146125fe576001811461262357612667565b607f600283041661260f818761311a565b955060ff1983168652808601935050612667565b60028204612631818761311a565b955061263c8561307d565b60005b8281101561265e5781548189015260018201915060208101905061263f565b82880195505050505b505092915050565b600061267c602b83613109565b91507f455243373231456e756d657261626c653a206f776e657220696e646578206f7560008301527f74206f6620626f756e64730000000000000000000000000000000000000000006020830152604082019050919050565b60006126e2603283613109565b91507f4552433732313a207472616e7366657220746f206e6f6e20455243373231526560008301527f63656976657220696d706c656d656e74657200000000000000000000000000006020830152604082019050919050565b6000612748601c83613109565b91507f4552433732313a20746f6b656e20616c7265616479206d696e746564000000006000830152602082019050919050565b6000612788602483613109565b91507f4552433732313a207472616e7366657220746f20746865207a65726f2061646460008301527f72657373000000000000000000000000000000000000000000000000000000006020830152604082019050919050565b60006127ee601983613109565b91507f4552433732313a20617070726f766520746f2063616c6c6572000000000000006000830152602082019050919050565b600061282e602c83613109565b91507f4552433732313a206f70657261746f7220717565727920666f72206e6f6e657860008301527f697374656e7420746f6b656e00000000000000000000000000000000000000006020830152604082019050919050565b6000612894603883613109565b91507f4552433732313a20617070726f76652063616c6c6572206973206e6f74206f7760008301527f6e6572206e6f7220617070726f76656420666f7220616c6c00000000000000006020830152604082019050919050565b60006128fa602a83613109565b91507f4552433732313a2062616c616e636520717565727920666f7220746865207a6560008301527f726f2061646472657373000000000000000000000000000000000000000000006020830152604082019050919050565b6000612960602983613109565b91507f4552433732313a206f776e657220717565727920666f72206e6f6e657869737460008301527f656e7420746f6b656e00000000000000000000000000000000000000000000006020830152604082019050919050565b60006129c6602083613109565b91507f4552433732313a206d696e7420746f20746865207a65726f20616464726573736000830152602082019050919050565b6000612a06602c83613109565b91507f4552433732313a20617070726f76656420717565727920666f72206e6f6e657860008301527f697374656e7420746f6b656e00000000000000000000000000000000000000006020830152604082019050919050565b6000612a6c602983613109565b91507f4552433732313a207472616e73666572206f6620746f6b656e2074686174206960008301527f73206e6f74206f776e00000000000000000000000000000000000000000000006020830152604082019050919050565b6000612ad2602f83613109565b91507f4552433732314d657461646174613a2055524920717565727920666f72206e6f60008301527f6e6578697374656e7420746f6b656e00000000000000000000000000000000006020830152604082019050919050565b6000612b38602183613109565b91507f4552433732313a20617070726f76616c20746f2063757272656e74206f776e6560008301527f72000000000000000000000000000000000000000000000000000000000000006020830152604082019050919050565b6000612b9e603183613109565b91507f4552433732313a207472616e736665722063616c6c6572206973206e6f74206f60008301527f776e6572206e6f7220617070726f7665640000000000000000000000000000006020830152604082019050919050565b6000612c04602c83613109565b91507f455243373231456e756d657261626c653a20676c6f62616c20696e646578206f60008301527f7574206f6620626f756e647300000000000000000000000000000000000000006020830152604082019050919050565b612c66816131a1565b82525050565b6000612c7882846124d4565b915081905092915050565b6000612c8f82856125e1565b9150612c9b828461253e565b91508190509392505050565b6000602082019050612cbc6000830184612408565b92915050565b6000608082019050612cd760008301876123f9565b612ce46020830186612408565b612cf16040830185612c5d565b8181036060830152612d03818461249b565b905095945050505050565b60006020820190508181036000830152612d288184612417565b905092915050565b6000602082019050612d45600083018461248c565b92915050565b60006020820190508181036000830152612d6581846125a8565b905092915050565b60006020820190508181036000830152612d878184612505565b905092915050565b60006020820190508181036000830152612da88161266f565b9050919050565b60006020820190508181036000830152612dc8816126d5565b9050919050565b60006020820190508181036000830152612de88161273b565b9050919050565b60006020820190508181036000830152612e088161277b565b9050919050565b60006020820190508181036000830152612e28816127e1565b9050919050565b60006020820190508181036000830152612e4881612821565b9050919050565b60006020820190508181036000830152612e6881612887565b9050919050565b60006020820190508181036000830152612e88816128ed565b9050919050565b60006020820190508181036000830152612ea881612953565b9050919050565b60006020820190508181036000830152612ec8816129b9565b9050919050565b60006020820190508181036000830152612ee8816129f9565b9050919050565b60006020820190508181036000830152612f0881612a5f565b9050919050565b60006020820190508181036000830152612f2881612ac5565b9050919050565b60006020820190508181036000830152612f4881612b2b565b9050919050565b60006020820190508181036000830152612f6881612b91565b9050919050565b60006020820190508181036000830152612f8881612bf7565b9050919050565b6000602082019050612fa46000830184612c5d565b92915050565b6000606082019050612fbf6000830186612c5d565b8181036020830152612fd18185612505565b9050612fe06040830184612c5d565b949350505050565b6000604051905081810181811067ffffffffffffffff8211171561300b57600080fd5b8060405250919050565b600067ffffffffffffffff82111561302c57600080fd5b601f19601f8301169050602081019050919050565b600067ffffffffffffffff82111561305857600080fd5b601f19601f8301169050602081019050919050565b6000819050602082019050919050565b60008190508160005260206000209050919050565b600081519050919050565b600081519050919050565b600081519050919050565b600081519050919050565b6000602082019050919050565b600082825260208201905092915050565b600082825260208201905092915050565b600081905092915050565b600082825260208201905092915050565b600082825260208201905092915050565b600081905092915050565b600061313082613181565b9050919050565b600061314282613181565b9050919050565b60008115159050919050565b60007fffffffff0000000000000000000000000000000000000000000000000000000082169050919050565b600073ffffffffffffffffffffffffffffffffffffffff82169050919050565b6000819050919050565b82818337600083830152505050565b60005b838110156131d85780820151818401526020810190506131bd565b838111156131e7576000848401525b50505050565b6000601f19601f8301169050919050565b61320781613125565b811461321257600080fd5b50565b61321e81613149565b811461322957600080fd5b50565b61323581613155565b811461324057600080fd5b50565b61324c816131a1565b811461325757600080fd5b5056fea365627a7a723158209dae42e3bef732cd8ba7c94b566f597e7fcba44838b1886b501587f94834bd5d6c6578706572696d656e74616cf564736f6c63430005100040",
  "source": "pragma solidity ^0.5.0;\npragma experimental ABIEncoderV2;\n\nimport '@openzeppelin/contracts/token/ERC721/ERC721Full.sol';\n\ncontract Passwordv1 is ERC721Full {\n  string[] public passwords;\n  mapping (uint => address) passwordsOwnedBy;\n\n  event getPasswordsOfUser(\n    string[] passwordsOfUser\n  );\n\n  event minted(\n      address indexed _by,\n      uint _id,\n      string _value,\n      uint _nbPasswords\n  );\n\n  constructor() ERC721Full(\"Passwords\", \"PSW\") public {\n  }\n\n  function mint(string memory _password) public {\n    //create new PSW tokens\n    uint _id = passwords.push(_password);\n    _mint(msg.sender,_id);\n    passwordsOwnedBy[_id] = msg.sender;\n    emit minted(msg.sender,_id,_password, passwords.length);\n\n  }\n  function getPasswords(address _of)  public {\n    require(passwords.length!=0);\n    string[] memory passwordsOfUser = new string[](passwords.length);\n    for (uint32 i=1;i<= passwords.length; i++) {\n      if(passwordsOwnedBy[i]== _of){\n        passwordsOfUser[i-1]= passwords[i-1];\n      }\n    }\n    emit getPasswordsOfUser(passwordsOfUser);\n\n  }\n\n}\n",
  "sourcePath": "/home/theodlz/Documents/Crypto/Dapp (copy)/eth_swap/src/contracts/Password-v1.sol",
  "compiler": {
    "name": "solc",
    "version": "0.5.16+commit.9c3226ce.Emscripten.clang"
  },
  "schemaVersion": "3.0.23",
  "updatedAt": "2021-05-13T10:27:17.876Z",
  "devdoc": {
    "methods": {
      "approve(address,uint256)": {
        "details": "Approves another address to transfer the given token ID The zero address indicates there is no approved address. There can only be one approved address per token at a given time. Can only be called by the token owner or an approved operator.",
        "params": {
          "to": "address to be approved for the given token ID",
          "tokenId": "uint256 ID of the token to be approved"
        }
      },
      "balanceOf(address)": {
        "details": "Gets the balance of the specified address.",
        "params": {
          "owner": "address to query the balance of"
        },
        "return": "uint256 representing the amount owned by the passed address"
      },
      "baseURI()": {
        "details": "Returns the base URI set via {_setBaseURI}. This will be automatically added as a preffix in {tokenURI} to each token's URI, when they are non-empty.    * _Available since v2.5.0._"
      },
      "getApproved(uint256)": {
        "details": "Gets the approved address for a token ID, or zero if no address set Reverts if the token ID does not exist.",
        "params": {
          "tokenId": "uint256 ID of the token to query the approval of"
        },
        "return": "address currently approved for the given token ID"
      },
      "isApprovedForAll(address,address)": {
        "details": "Tells whether an operator is approved by a given owner.",
        "params": {
          "operator": "operator address which you want to query the approval of",
          "owner": "owner address which you want to query the approval of"
        },
        "return": "bool whether the given operator is approved by the given owner"
      },
      "name()": {
        "details": "Gets the token name.",
        "return": "string representing the token name"
      },
      "ownerOf(uint256)": {
        "details": "Gets the owner of the specified token ID.",
        "params": {
          "tokenId": "uint256 ID of the token to query the owner of"
        },
        "return": "address currently marked as the owner of the given token ID"
      },
      "safeTransferFrom(address,address,uint256)": {
        "details": "Safely transfers the ownership of a given token ID to another address If the target address is a contract, it must implement {IERC721Receiver-onERC721Received}, which is called upon a safe transfer, and return the magic value `bytes4(keccak256(\"onERC721Received(address,address,uint256,bytes)\"))`; otherwise, the transfer is reverted. Requires the msg.sender to be the owner, approved, or operator",
        "params": {
          "from": "current owner of the token",
          "to": "address to receive the ownership of the given token ID",
          "tokenId": "uint256 ID of the token to be transferred"
        }
      },
      "safeTransferFrom(address,address,uint256,bytes)": {
        "details": "Safely transfers the ownership of a given token ID to another address If the target address is a contract, it must implement {IERC721Receiver-onERC721Received}, which is called upon a safe transfer, and return the magic value `bytes4(keccak256(\"onERC721Received(address,address,uint256,bytes)\"))`; otherwise, the transfer is reverted. Requires the _msgSender() to be the owner, approved, or operator",
        "params": {
          "_data": "bytes data to send along with a safe transfer check",
          "from": "current owner of the token",
          "to": "address to receive the ownership of the given token ID",
          "tokenId": "uint256 ID of the token to be transferred"
        }
      },
      "setApprovalForAll(address,bool)": {
        "details": "Sets or unsets the approval of a given operator An operator is allowed to transfer all tokens of the sender on their behalf.",
        "params": {
          "approved": "representing the status of the approval to be set",
          "to": "operator address to set the approval"
        }
      },
      "supportsInterface(bytes4)": {
        "details": "See {IERC165-supportsInterface}.     * Time complexity O(1), guaranteed to always use less than 30 000 gas."
      },
      "symbol()": {
        "details": "Gets the token symbol.",
        "return": "string representing the token symbol"
      },
      "tokenByIndex(uint256)": {
        "details": "Gets the token ID at a given index of all the tokens in this contract Reverts if the index is greater or equal to the total number of tokens.",
        "params": {
          "index": "uint256 representing the index to be accessed of the tokens list"
        },
        "return": "uint256 token ID at the given index of the tokens list"
      },
      "tokenOfOwnerByIndex(address,uint256)": {
        "details": "Gets the token ID at a given index of the tokens list of the requested owner.",
        "params": {
          "index": "uint256 representing the index to be accessed of the requested tokens list",
          "owner": "address owning the tokens list to be accessed"
        },
        "return": "uint256 token ID at the given index of the tokens list owned by the requested address"
      },
      "tokenURI(uint256)": {
        "details": "Returns the URI for a given token ID. May return an empty string.     * If the token's URI is non-empty and a base URI was set (via {_setBaseURI}), it will be added to the token ID's URI as a prefix.     * Reverts if the token ID does not exist."
      },
      "totalSupply()": {
        "details": "Gets the total amount of tokens stored by the contract.",
        "return": "uint256 representing the total amount of tokens"
      },
      "transferFrom(address,address,uint256)": {
        "details": "Transfers the ownership of a given token ID to another address. Usage of this method is discouraged, use {safeTransferFrom} whenever possible. Requires the msg.sender to be the owner, approved, or operator.",
        "params": {
          "from": "current owner of the token",
          "to": "address to receive the ownership of the given token ID",
          "tokenId": "uint256 ID of the token to be transferred"
        }
      }
    }
  },
  "userdoc": {
    "methods": {}
  }
}